:020000003129A4
:0E000600213083120313FD00FD0B07280800B4
:06001400000000000800DE
:10001A000F3083120313FC004730FD00FD0B132839
:0A002A00FC0B132800000000080082
:1000340083120313C91B2028861221288616491B04
:100044002528061226280616C91A2A2886112B28BE
:100054008615491A2F280611302806154318342806
:1000640006143528061086140A208610C9193C285F
:1000740086123D288616491941280612422806167A
:10008400C918462886114728861549184B28061191
:100094004C280615431850280614512806108614B7
:1000A4000A208610431C58280D20592803200800D4
:0E00B400831203133E088A003D0882000800F4
:1000C2000E3083120313FD00FD0B652800000800AB
:1000D2008312031343104808C9001A20431408006E
:1000E2008328803083120313C4009628C030C400D2
:1000F20096289430C4009628D430C40096288030C4
:10010200C4009628831203134408013A0319722883
:100112004408023A031977284408033A03197A2853
:100122004408043A03197D2880284503F000440856
:10013200F0077008C4007008C9001A204310C701F4
:1001420047084607840000080319AF2847084607F6
:1001520084000008C8006920C70AA12843140800C7
:1001620083160313861006100611861106128612D4
:1001720083128610061086120612861106110D20B1
:100182000D200D208615061586140A2086100D20D6
:1001920086140A2086100D2086140A2086100D204F
:1001A200061186140A2086100D2086140A20861055
:1001B2008611861686140A2086100D2086120615D0
:1001C20086140A208610061186140A2086100D2035
:1001D20086140A208610061586140A2086100D2021
:1001E200061186140A20861086160616861506152E
:0C01F20086140A2086100D20431408001B
:1001FE00C330831203139F05C0309F004408F000E4
:10020E00F00D7010F00D701070089F042009F000B2
:10021E00700883169F059F1783121F1461209F1469
:10022E009F1C1B29000017291F101E08F100F0014A
:0C023E0083161E08F0040030F1040800D4
:10024A005A208A110A128000840ABD0A0319BE0ABA
:08025A00F003031D2529080033
:100262001A22831603138701831287018B170B1639
:1002720006308316031788008901B1200C30C900AB
:100282001A200130C9001A2000303006031D4B2904
:1002920001302F06031DD12901304002031D5329CD
:1002A2002C303F0203185E294208003C031D5B29E3
:1002B2004108643C03185E296E29071407150130B2
:1002C200C4000130C5003930C60071200230C400BC
:1002D2000130C5003F08C60071204008013C031DE3
:1002E20074293F082C3C03187F2900304202031D69
:1002F2007C296430410203187F298F2907140715CE
:100302000130C4000130C5003130C6007120023016
:10031200C4000130C5004108C6007120013040020E
:10032200031D95292C303F02031CCD2900304202C7
:10033200031D9D2964304102031CCD2907140715B2
:100342000130C4000130C5002130C60071200230E6
:10035200C4000130C5004108C60071201530FB0001
:100362004B30FC00BE30FD00FD0BB529FC0BB5295E
:10037200FB0BB52900000130C9001A200130C4006E
:100382000130C5002A30C60071200230C40001309D
:10039200C5003F08C6007120AF01B0010710071168
:1003A2000130C400FF2070088312BF007108C00032
:1003B2000230C400FF2070088312C1007108C2001D
:1003C20001304002031DE7292C303F020318F229B5
:1003D20000304202031DEF29643041020318F22962
:0C03E200F4290614F5298714D129F62906
:10043400203084001D3083120313F000FC30BD0013
:080444000130BE002521080073
:0203F80030349F
:1003FA0061346734693472346C3469346B34203450
:02040A000034BC
:0A040C00673461347A342034003480
:04041600003400347A
:10041A0061346734693472346C3469346B3400344F
:08042A00673461347A340034B8
:04400E00F22F000786
:00000001FF
